{
  "contractName": "DetailedERC20",
  "abi": [
    {
      "constant": true,
      "inputs": [],
      "name": "name",
      "outputs": [
        {
          "name": "",
          "type": "string"
        }
      ],
      "payable": false,
      "stateMutability": "view",
      "type": "function"
    },
    {
      "constant": true,
      "inputs": [],
      "name": "decimals",
      "outputs": [
        {
          "name": "",
          "type": "uint8"
        }
      ],
      "payable": false,
      "stateMutability": "view",
      "type": "function"
    },
    {
      "constant": true,
      "inputs": [],
      "name": "totalSupply_",
      "outputs": [
        {
          "name": "",
          "type": "uint256"
        }
      ],
      "payable": false,
      "stateMutability": "view",
      "type": "function"
    },
    {
      "constant": true,
      "inputs": [],
      "name": "symbol",
      "outputs": [
        {
          "name": "",
          "type": "string"
        }
      ],
      "payable": false,
      "stateMutability": "view",
      "type": "function"
    },
    {
      "inputs": [],
      "payable": false,
      "stateMutability": "nonpayable",
      "type": "constructor"
    },
    {
      "anonymous": false,
      "inputs": [
        {
          "indexed": true,
          "name": "from",
          "type": "address"
        },
        {
          "indexed": true,
          "name": "to",
          "type": "address"
        },
        {
          "indexed": false,
          "name": "value",
          "type": "uint256"
        }
      ],
      "name": "Transfer",
      "type": "event"
    },
    {
      "constant": true,
      "inputs": [],
      "name": "totalSupply",
      "outputs": [
        {
          "name": "",
          "type": "uint256"
        }
      ],
      "payable": false,
      "stateMutability": "view",
      "type": "function"
    },
    {
      "constant": false,
      "inputs": [
        {
          "name": "_to",
          "type": "address"
        },
        {
          "name": "_value",
          "type": "uint256"
        }
      ],
      "name": "transfer",
      "outputs": [
        {
          "name": "",
          "type": "bool"
        }
      ],
      "payable": false,
      "stateMutability": "nonpayable",
      "type": "function"
    },
    {
      "constant": true,
      "inputs": [
        {
          "name": "_owner",
          "type": "address"
        }
      ],
      "name": "balanceOf",
      "outputs": [
        {
          "name": "balance",
          "type": "uint256"
        }
      ],
      "payable": false,
      "stateMutability": "view",
      "type": "function"
    }
  ],
  "bytecode": "0x608060405234801561001057600080fd5b506040805180820190915260098082527f4e657874546f6b656e00000000000000000000000000000000000000000000006020909201918252610055916001916100c2565b506040805180820190915260048082527f4e45585400000000000000000000000000000000000000000000000000000000602090920191825261009a916002916100c2565b506003805460ff1916905561271060048190553360009081526020819052604090205561015d565b828054600181600116156101000203166002900490600052602060002090601f016020900481019282601f1061010357805160ff1916838001178555610130565b82800160010185558215610130579182015b82811115610130578251825591602001919060010190610115565b5061013c929150610140565b5090565b61015a91905b8082111561013c5760008155600101610146565b90565b61047e8061016c6000396000f3006080604052600436106100825763ffffffff7c010000000000000000000000000000000000000000000000000000000060003504166306fdde03811461008757806318160ddd14610111578063313ce56714610138578063324536eb1461016357806370a082311461017857806395d89b41146101a6578063a9059cbb146101bb575b600080fd5b34801561009357600080fd5b5061009c610200565b6040805160208082528351818301528351919283929083019185019080838360005b838110156100d65781810151838201526020016100be565b50505050905090810190601f1680156101035780820380516001836020036101000a031916815260200191505b509250505060405180910390f35b34801561011d57600080fd5b5061012661028d565b60408051918252519081900360200190f35b34801561014457600080fd5b5061014d610293565b6040805160ff9092168252519081900360200190f35b34801561016f57600080fd5b5061012661029c565b34801561018457600080fd5b5061012673ffffffffffffffffffffffffffffffffffffffff600435166102a2565b3480156101b257600080fd5b5061009c6102ca565b3480156101c757600080fd5b506101ec73ffffffffffffffffffffffffffffffffffffffff60043516602435610322565b604080519115158252519081900360200190f35b60018054604080516020600284861615610100026000190190941693909304601f810184900484028201840190925281815292918301828280156102855780601f1061025a57610100808354040283529160200191610285565b820191906000526020600020905b81548152906001019060200180831161026857829003601f168201915b505050505081565b60045490565b60035460ff1681565b60045481565b73ffffffffffffffffffffffffffffffffffffffff1660009081526020819052604090205490565b6002805460408051602060018416156101000260001901909316849004601f810184900484028201840190925281815292918301828280156102855780601f1061025a57610100808354040283529160200191610285565b600073ffffffffffffffffffffffffffffffffffffffff8316151561034657600080fd5b3360009081526020819052604090205482111561036257600080fd5b33600090815260208190526040902054610382908363ffffffff61042a16565b336000908152602081905260408082209290925573ffffffffffffffffffffffffffffffffffffffff8516815220546103c1908363ffffffff61043c16565b73ffffffffffffffffffffffffffffffffffffffff8416600081815260208181526040918290209390935580518581529051919233927fddf252ad1be2c89b69c2b068fc378daa952ba7f163c4a11628f55a4df523b3ef9281900390910190a350600192915050565b60008282111561043657fe5b50900390565b60008282018381101561044b57fe5b93925050505600a165627a7a723058207089008e09171ed1b1aded44ec3439bff88ea0591ad1519dbd2d05fab4abd8e30029",
  "source": "pragma solidity ^0.4.18;\nimport \"./ERC20Basic.sol\";\nimport \"./SafeMath.sol\";\n\ncontract DetailedERC20 is ERC20Basic {\n    using SafeMath for uint256;\n    mapping(address => uint256) balances;\n\n    string public name;\n    string public symbol;\n    uint8 public decimals;\n    uint256 public totalSupply_;\n\n    function DetailedERC20() public {\n        name = \"NextToken\";\n        symbol = \"NEXT\";\n        decimals = 0;\n        totalSupply_ = 10000;\n        balances[msg.sender] = 10000;\n    }\n\n    /**\n    * @dev total number of tokens in existence\n    */\n    function totalSupply() public view returns (uint256) {\n        return totalSupply_;\n    }\n\n    /**\n    * @dev transfer token for a specified address\n    * @param _to The address to transfer to.\n    * @param _value The amount to be transferred.\n    */\n    function transfer(address _to, uint256 _value) public returns (bool) {\n        require(_to != address(0));\n        require(_value <= balances[msg.sender]);\n\n        // SafeMath.sub will throw if there is not enough balance.\n        balances[msg.sender] = balances[msg.sender].sub(_value);\n        balances[_to] = balances[_to].add(_value);\n        Transfer(msg.sender, _to, _value);\n        return true;\n    }\n\n    /**\n    * @dev Gets the balance of the specified address.\n    * @param _owner The address to query the the balance of.\n    * @return An uint256 representing the amount owned by the passed address.\n    */\n    function balanceOf(address _owner) public view returns (uint256 balance) {\n        return balances[_owner];\n    }\n}",
  "sourcePath": "/Users/mattober/Repos/EthereumDev/BlockEra/TokenEvent/contracts/DetailedERC20.sol",
  "compiler": {
    "name": "solc",
    "version": "0.4.24+commit.e67f0147.Emscripten.clang"
  },
  "schemaVersion": "2.0.1",
  "updatedAt": "2018-08-09T21:38:49.405Z"
}