{
  "contractName": "Loan",
  "abi": [
    {
      "constant": true,
      "inputs": [],
      "name": "amountPaid",
      "outputs": [
        {
          "name": "",
          "type": "uint256"
        }
      ],
      "payable": false,
      "stateMutability": "view",
      "type": "function"
    },
    {
      "constant": true,
      "inputs": [],
      "name": "interestDesired",
      "outputs": [
        {
          "name": "",
          "type": "uint256"
        }
      ],
      "payable": false,
      "stateMutability": "view",
      "type": "function"
    },
    {
      "constant": true,
      "inputs": [],
      "name": "amountLent",
      "outputs": [
        {
          "name": "",
          "type": "uint256"
        }
      ],
      "payable": false,
      "stateMutability": "view",
      "type": "function"
    },
    {
      "constant": true,
      "inputs": [],
      "name": "loanWithdrawn",
      "outputs": [
        {
          "name": "",
          "type": "bool"
        }
      ],
      "payable": false,
      "stateMutability": "view",
      "type": "function"
    },
    {
      "constant": true,
      "inputs": [],
      "name": "borrower",
      "outputs": [
        {
          "name": "",
          "type": "address"
        }
      ],
      "payable": false,
      "stateMutability": "view",
      "type": "function"
    },
    {
      "constant": true,
      "inputs": [],
      "name": "owner",
      "outputs": [
        {
          "name": "",
          "type": "address"
        }
      ],
      "payable": false,
      "stateMutability": "view",
      "type": "function"
    },
    {
      "inputs": [
        {
          "name": "_owner",
          "type": "address"
        },
        {
          "name": "_borrower",
          "type": "address"
        },
        {
          "name": "_interestDesired",
          "type": "uint256"
        }
      ],
      "payable": true,
      "stateMutability": "payable",
      "type": "constructor"
    },
    {
      "anonymous": false,
      "inputs": [
        {
          "indexed": false,
          "name": "_oldOwner",
          "type": "address"
        },
        {
          "indexed": false,
          "name": "_newOwner",
          "type": "address"
        }
      ],
      "name": "OwnerTransferred",
      "type": "event"
    },
    {
      "constant": true,
      "inputs": [],
      "name": "getBalance",
      "outputs": [
        {
          "name": "balance",
          "type": "uint256"
        }
      ],
      "payable": false,
      "stateMutability": "view",
      "type": "function"
    },
    {
      "constant": true,
      "inputs": [],
      "name": "getOutstandingBalance",
      "outputs": [
        {
          "name": "oustandingBalance",
          "type": "uint256"
        }
      ],
      "payable": false,
      "stateMutability": "view",
      "type": "function"
    },
    {
      "constant": false,
      "inputs": [],
      "name": "withdrawLoan",
      "outputs": [],
      "payable": false,
      "stateMutability": "nonpayable",
      "type": "function"
    },
    {
      "constant": false,
      "inputs": [],
      "name": "makePayment",
      "outputs": [
        {
          "name": "outstandingBalance",
          "type": "uint256"
        }
      ],
      "payable": true,
      "stateMutability": "payable",
      "type": "function"
    },
    {
      "constant": false,
      "inputs": [],
      "name": "collectLoanPayments",
      "outputs": [],
      "payable": false,
      "stateMutability": "nonpayable",
      "type": "function"
    },
    {
      "constant": false,
      "inputs": [
        {
          "name": "_newOwner",
          "type": "address"
        }
      ],
      "name": "transferLoanOwnership",
      "outputs": [],
      "payable": false,
      "stateMutability": "nonpayable",
      "type": "function"
    }
  ],
  "bytecode": "0x608060405260405160608061052d833981016040908152815160208301519190920151600160a060020a03808416908316141561003b57600080fd5b6000341161004857600080fd5b60008054600160a060020a03948516600160a060020a0319918216179091556001805493909416921691909117909155346002556003556005805460ff19169055610495806100986000396000f3006080604052600436106100b95763ffffffff7c010000000000000000000000000000000000000000000000000000000060003504166307c2ffbb81146100be57806312065fe0146100ee578063216340c31461011557806328a117021461012a57806339f1412a1461013f578063573300dd146101545780636d59f4c7146101695780637df1f1b9146101925780638da5cb5b146101d0578063bb4e7b54146101e5578063c4c77e25146101fa578063d8d797001461020f575b600080fd5b3480156100ca57600080fd5b506100ec73ffffffffffffffffffffffffffffffffffffffff60043516610217565b005b3480156100fa57600080fd5b506101036102b1565b60408051918252519081900360200190f35b34801561012157600080fd5b506101036102b6565b34801561013657600080fd5b506101036102bc565b34801561014b57600080fd5b506101036102ca565b34801561016057600080fd5b506101036102d0565b34801561017557600080fd5b5061017e6102d6565b604080519115158252519081900360200190f35b34801561019e57600080fd5b506101a76102df565b6040805173ffffffffffffffffffffffffffffffffffffffff9092168252519081900360200190f35b3480156101dc57600080fd5b506101a76102fb565b3480156101f157600080fd5b506100ec610317565b34801561020657600080fd5b506100ec6103a8565b610103610429565b60005473ffffffffffffffffffffffffffffffffffffffff16331461023b57600080fd5b6000805473ffffffffffffffffffffffffffffffffffffffff191673ffffffffffffffffffffffffffffffffffffffff831690811790915560408051338152602081019290925280517f8934ce4adea8d9ce0d714d2c22b86790e41b7731c84b926fbbdc1d40ff6533c99281900390910190a150565b303190565b60045481565b600454600354600254010390565b60035481565b60025481565b60055460ff1681565b60015473ffffffffffffffffffffffffffffffffffffffff1681565b60005473ffffffffffffffffffffffffffffffffffffffff1681565b60005473ffffffffffffffffffffffffffffffffffffffff16331461033b57600080fd5b60055460ff16151560011461034f57600080fd5b600030311161035d57600080fd5b6000805460405173ffffffffffffffffffffffffffffffffffffffff90911691303180156108fc02929091818181858888f193505050501580156103a5573d6000803e3d6000fd5b50565b60055460ff16156103b857600080fd5b6002543031146103c757600080fd5b60015473ffffffffffffffffffffffffffffffffffffffff1633146103eb57600080fd5b600254604051339180156108fc02916000818181858888f19350505050158015610419573d6000803e3d6000fd5b506005805460ff19166001179055565b60055460009060ff16151560011461044057600080fd5b6104486102bc565b34111561045457600080fd5b60048054340190556104646102bc565b9050905600a165627a7a7230582023f9006652b96c058cbe6604e766d79be764d4668065b2a96a6b8e377cebce530029",
  "source": "pragma solidity ^0.4.17;\n\ncontract Loan {\n\n    //initially play with all being public, but depending on use case, might want to make private\n    address public owner;\n    address public borrower;\n    uint256 public amountLent; //the initial ammount the contract creator lent to the borrower\n    uint256 public interestDesired; //in more advanced contract this can be calculated and incremented using time stamps and an oracle to supply the timestamps\n    uint256 public amountPaid; // could maybe expand to an installment array later on.\n    bool public loanWithdrawn; //marks whether or not the loan has been withdrawn by the borrower\n\n\n    //contract constructor used to initialize the contract's global variables\n    function Loan(address _owner, address _borrower, uint256 _interestDesired) public payable {\n        require(_owner != _borrower);\n        require(msg.value > 0);\n        owner = _owner;\n        borrower = _borrower;\n        amountLent = msg.value;\n        interestDesired = _interestDesired;\n        loanWithdrawn = false;\n    }\n\n    function getBalance() external view returns (uint256 balance) {\n        return this.balance;\n    }\n\n    function getOutstandingBalance() public view returns (uint256 oustandingBalance) {\n        return amountLent + interestDesired - amountPaid;\n    }\n\n    //this allows the borrower to withdraw the funds that were initially deposited by the lender\n    function withdrawLoan() external {\n        //checks to make sure the sender can actually withdraw the loan\n        require(loanWithdrawn == false);\n        require(this.balance == amountLent);\n        require(msg.sender == borrower);\n\n        //transfer the loan deposit to the sender and mark the deposit withdrawn\n        msg.sender.transfer(amountLent);\n        loanWithdrawn = true;\n    }\n\n    function makePayment() external payable returns (uint256 outstandingBalance) {\n        require(loanWithdrawn == true);\n        require(msg.value <= getOutstandingBalance());\n        amountPaid = amountPaid + msg.value;\n        return getOutstandingBalance();\n    }\n\n    function collectLoanPayments() external {\n        require(msg.sender == owner);\n        require(loanWithdrawn == true);\n        require(this.balance > 0);\n\n        owner.transfer(this.balance);\n    }\n\n    //event emission for web3 to track\n    event OwnerTransferred(\n        address _oldOwner,\n        address _newOwner\n    );\n\n    function transferLoanOwnership(address _newOwner) external {\n        require(msg.sender == owner);\n        owner = _newOwner;\n\n        //emit event of ownership transferred\n        OwnerTransferred(msg.sender, _newOwner);\n    }\n\n}",
  "sourcePath": "/Users/mattober/Repos/EthereumDev/BlockEra/TokenEvent/contracts/Loan.sol",
  "compiler": {
    "name": "solc",
    "version": "0.4.24+commit.e67f0147.Emscripten.clang"
  },
  "schemaVersion": "2.0.1",
  "updatedAt": "2018-08-09T21:12:37.068Z"
}